{
  "contractName": "Asset",
  "abi": [
    {
      "constant": true,
      "inputs": [],
      "name": "name",
      "outputs": [
        {
          "name": "",
          "type": "string"
        }
      ],
      "payable": false,
      "stateMutability": "view",
      "type": "function"
    },
    {
      "constant": true,
      "inputs": [],
      "name": "status",
      "outputs": [
        {
          "name": "",
          "type": "uint8"
        }
      ],
      "payable": false,
      "stateMutability": "view",
      "type": "function"
    },
    {
      "constant": true,
      "inputs": [],
      "name": "custodian",
      "outputs": [
        {
          "name": "",
          "type": "address"
        }
      ],
      "payable": false,
      "stateMutability": "view",
      "type": "function"
    },
    {
      "inputs": [
        {
          "name": "_name",
          "type": "string"
        }
      ],
      "payable": false,
      "stateMutability": "nonpayable",
      "type": "constructor"
    },
    {
      "anonymous": false,
      "inputs": [
        {
          "indexed": false,
          "name": "name",
          "type": "string"
        },
        {
          "indexed": false,
          "name": "account",
          "type": "address"
        },
        {
          "indexed": false,
          "name": "custodian",
          "type": "address"
        },
        {
          "indexed": false,
          "name": "timestamp",
          "type": "uint256"
        }
      ],
      "name": "Action",
      "type": "event"
    },
    {
      "constant": false,
      "inputs": [
        {
          "name": "_to",
          "type": "address"
        }
      ],
      "name": "send",
      "outputs": [],
      "payable": false,
      "stateMutability": "nonpayable",
      "type": "function"
    },
    {
      "constant": false,
      "inputs": [
        {
          "name": "_from",
          "type": "address"
        }
      ],
      "name": "receive",
      "outputs": [],
      "payable": false,
      "stateMutability": "nonpayable",
      "type": "function"
    }
  ],
  "bytecode": "0x608060405234801561001057600080fd5b506040516109873803806109878339810180604052602081101561003357600080fd5b81019080805164010000000081111561004b57600080fd5b8281019050602081018481111561006157600080fd5b815185600182028301116401000000008211171561007e57600080fd5b5050929190505050806000908051906020019061009c9291906101e0565b5033600160006101000a81548173ffffffffffffffffffffffffffffffffffffffff021916908373ffffffffffffffffffffffffffffffffffffffff1602179055506000600160146101000a81548160ff021916908360028111156100fd57fe5b02179055507f85bc0605b6ec0e27701499e22eab1c5cbff14b94d451755ad083dc2663b8ddfe33334260405180806020018573ffffffffffffffffffffffffffffffffffffffff1673ffffffffffffffffffffffffffffffffffffffff1681526020018473ffffffffffffffffffffffffffffffffffffffff1673ffffffffffffffffffffffffffffffffffffffff168152602001838152602001828103825260068152602001807f435245415445000000000000000000000000000000000000000000000000000081525060200194505050505060405180910390a150610285565b828054600181600116156101000203166002900490600052602060002090601f016020900481019282601f1061022157805160ff191683800117855561024f565b8280016001018555821561024f579182015b8281111561024e578251825591602001919060010190610233565b5b50905061025c9190610260565b5090565b61028291905b8082111561027e576000816000905550600101610266565b5090565b90565b6106f3806102946000396000f3fe60806040526004361061006d576000357c0100000000000000000000000000000000000000000000000000000000900463ffffffff16806306fdde0314610072578063200d2ed214610102578063375b74c31461013b5780633e58c58c146101925780639d01174f146101e3575b600080fd5b34801561007e57600080fd5b50610087610234565b6040518080602001828103825283818151815260200191508051906020019080838360005b838110156100c75780820151818401526020810190506100ac565b50505050905090810190601f1680156100f45780820380516001836020036101000a031916815260200191505b509250505060405180910390f35b34801561010e57600080fd5b506101176102d2565b6040518082600281111561012757fe5b60ff16815260200191505060405180910390f35b34801561014757600080fd5b506101506102e5565b604051808273ffffffffffffffffffffffffffffffffffffffff1673ffffffffffffffffffffffffffffffffffffffff16815260200191505060405180910390f35b34801561019e57600080fd5b506101e1600480360360208110156101b557600080fd5b81019080803573ffffffffffffffffffffffffffffffffffffffff16906020019092919050505061030b565b005b3480156101ef57600080fd5b506102326004803603602081101561020657600080fd5b81019080803573ffffffffffffffffffffffffffffffffffffffff169060200190929190505050610538565b005b60008054600181600116156101000203166002900480601f0160208091040260200160405190810160405280929190818152602001828054600181600116156101000203166002900480156102ca5780601f1061029f576101008083540402835291602001916102ca565b820191906000526020600020905b8154815290600101906020018083116102ad57829003601f168201915b505050505081565b600160149054906101000a900460ff1681565b600160009054906101000a900473ffffffffffffffffffffffffffffffffffffffff1681565b600160009054906101000a900473ffffffffffffffffffffffffffffffffffffffff1673ffffffffffffffffffffffffffffffffffffffff163373ffffffffffffffffffffffffffffffffffffffff1614151561036757600080fd5b600160009054906101000a900473ffffffffffffffffffffffffffffffffffffffff1673ffffffffffffffffffffffffffffffffffffffff168173ffffffffffffffffffffffffffffffffffffffff16141515156103c457600080fd5b600160028111156103d157fe5b600160149054906101000a900460ff1660028111156103ec57fe5b141515156103f957600080fd5b60018060146101000a81548160ff0219169083600281111561041757fe5b021790555080600160006101000a81548173ffffffffffffffffffffffffffffffffffffffff021916908373ffffffffffffffffffffffffffffffffffffffff1602179055507f85bc0605b6ec0e27701499e22eab1c5cbff14b94d451755ad083dc2663b8ddfe33824260405180806020018573ffffffffffffffffffffffffffffffffffffffff1673ffffffffffffffffffffffffffffffffffffffff1681526020018473ffffffffffffffffffffffffffffffffffffffff1673ffffffffffffffffffffffffffffffffffffffff168152602001838152602001828103825260048152602001807f53454e440000000000000000000000000000000000000000000000000000000081525060200194505050505060405180910390a150565b600160009054906101000a900473ffffffffffffffffffffffffffffffffffffffff1673ffffffffffffffffffffffffffffffffffffffff163373ffffffffffffffffffffffffffffffffffffffff1614151561059457600080fd5b600160028111156105a157fe5b600160149054906101000a900460ff1660028111156105bc57fe5b1415156105c857600080fd5b6002600160146101000a81548160ff021916908360028111156105e757fe5b02179055507f85bc0605b6ec0e27701499e22eab1c5cbff14b94d451755ad083dc2663b8ddfe33334260405180806020018573ffffffffffffffffffffffffffffffffffffffff1673ffffffffffffffffffffffffffffffffffffffff1681526020018473ffffffffffffffffffffffffffffffffffffffff1673ffffffffffffffffffffffffffffffffffffffff168152602001838152602001828103825260078152602001807f524543454956450000000000000000000000000000000000000000000000000081525060200194505050505060405180910390a15056fea165627a7a72305820894bfdd8f2ba1a0ab520ba4f1dcf5ccb88da71ecf955d53f3f8ca0023e4bf70c0029",
  "source": "pragma solidity ^0.5.0;\r\n\r\ncontract Asset {\r\n  string public name;\r\n  address public custodian;\r\n  STATUSES public status;\r\n\r\n  enum STATUSES {\r\n    CREATED,\r\n    SENT,\r\n    RECEIVED\r\n  }\r\n\r\n  event Action(\r\n    string name,\r\n    address account,\r\n    address custodian,\r\n    uint timestamp\r\n  );\r\n\r\n  constructor(string memory _name) public {\r\n    // Set name\r\n    name = _name;\r\n\r\n    // Make deployer custodian\r\n    custodian = msg.sender;\r\n\r\n    // Update status to \"CREATED\"\r\n    status = STATUSES.CREATED;\r\n\r\n    // Log history\r\n    emit Action(\"CREATE\", msg.sender, msg.sender, now);\r\n  }\r\n\r\n  function send(address _to) public {\r\n    // Must be custodian to send\r\n    require(msg.sender == custodian);\r\n\r\n    // Cannot send to self\r\n    require(_to != custodian);\r\n\r\n    // Can't be in \"SENT\" status\r\n    // Must be \"CREATED\" or \"RECEIVED\"\r\n    require(status != STATUSES.SENT);\r\n\r\n    // Update status to \"SENT\"\r\n    status = STATUSES.SENT;\r\n\r\n    // Make _to new custodian\r\n    custodian = _to;\r\n\r\n    \r\n\r\n    // Log history\r\n    emit Action(\"SEND\", msg.sender, _to, now);\r\n  }\r\n\r\n  function receive(address _from) public {\r\n    // Must be custodian to receive\r\n    require(msg.sender == custodian);\r\n\r\n    // Must be in \"SENT\" status\r\n    // Cannot be \"CREATED\" or \"RECEIVED\"\r\n    require(status == STATUSES.SENT);\r\n\r\n    // Update status to \"RECEIVED\"\r\n    status = STATUSES.RECEIVED;\r\n\r\n    // Log history\r\n    emit Action(\"RECEIVE\", msg.sender, msg.sender, now);\r\n  }\r\n}",
  "sourcePath": "C:/Users/FAMILY/pds/src/contracts/Asset.sol",
  "compiler": {
    "name": "solc",
    "version": "0.5.0+commit.1d4f565a.Emscripten.clang"
  },
  "schemaVersion": "3.0.2",
  "updatedAt": "2021-09-07T04:45:55.188Z",
  "devdoc": {
    "methods": {}
  },
  "userdoc": {
    "methods": {}
  }
}